{
  "contractName": "MyContract",
  "abi": [
    {
      "inputs": [],
      "stateMutability": "nonpayable",
      "type": "constructor"
    },
    {
      "anonymous": false,
      "inputs": [
        {
          "indexed": false,
          "internalType": "uint256",
          "name": "newIndex",
          "type": "uint256"
        }
      ],
      "name": "LastRewardIndexChanged",
      "type": "event"
    },
    {
      "anonymous": false,
      "inputs": [
        {
          "indexed": true,
          "internalType": "address",
          "name": "student",
          "type": "address"
        },
        {
          "indexed": false,
          "internalType": "string",
          "name": "rewardName",
          "type": "string"
        },
        {
          "indexed": false,
          "internalType": "uint256",
          "name": "rewardCost",
          "type": "uint256"
        },
        {
          "indexed": false,
          "internalType": "uint256",
          "name": "timestamp",
          "type": "uint256"
        }
      ],
      "name": "Redeemed",
      "type": "event"
    },
    {
      "anonymous": false,
      "inputs": [
        {
          "indexed": false,
          "internalType": "string",
          "name": "name",
          "type": "string"
        },
        {
          "indexed": false,
          "internalType": "uint256",
          "name": "coinCost",
          "type": "uint256"
        },
        {
          "indexed": false,
          "internalType": "uint256",
          "name": "quantity",
          "type": "uint256"
        },
        {
          "indexed": false,
          "internalType": "address",
          "name": "rewardAddress",
          "type": "address"
        }
      ],
      "name": "RewardAdded",
      "type": "event"
    },
    {
      "anonymous": false,
      "inputs": [
        {
          "indexed": true,
          "internalType": "address",
          "name": "student",
          "type": "address"
        },
        {
          "indexed": false,
          "internalType": "uint256",
          "name": "amount",
          "type": "uint256"
        }
      ],
      "name": "Rewarded",
      "type": "event"
    },
    {
      "anonymous": false,
      "inputs": [
        {
          "indexed": true,
          "internalType": "address",
          "name": "student",
          "type": "address"
        },
        {
          "indexed": false,
          "internalType": "uint256",
          "name": "amount",
          "type": "uint256"
        }
      ],
      "name": "SpentCoin",
      "type": "event"
    },
    {
      "inputs": [
        {
          "internalType": "address",
          "name": "",
          "type": "address"
        }
      ],
      "name": "balances",
      "outputs": [
        {
          "internalType": "uint256",
          "name": "",
          "type": "uint256"
        }
      ],
      "stateMutability": "view",
      "type": "function"
    },
    {
      "inputs": [],
      "name": "owner",
      "outputs": [
        {
          "internalType": "address",
          "name": "",
          "type": "address"
        }
      ],
      "stateMutability": "view",
      "type": "function"
    },
    {
      "inputs": [
        {
          "internalType": "address",
          "name": "",
          "type": "address"
        },
        {
          "internalType": "uint256",
          "name": "",
          "type": "uint256"
        }
      ],
      "name": "redemptionHistory",
      "outputs": [
        {
          "internalType": "string",
          "name": "rewardName",
          "type": "string"
        },
        {
          "internalType": "uint256",
          "name": "rewardCost",
          "type": "uint256"
        },
        {
          "internalType": "uint256",
          "name": "timestamp",
          "type": "uint256"
        }
      ],
      "stateMutability": "view",
      "type": "function"
    },
    {
      "inputs": [
        {
          "internalType": "uint256",
          "name": "",
          "type": "uint256"
        }
      ],
      "name": "rewards",
      "outputs": [
        {
          "internalType": "string",
          "name": "name",
          "type": "string"
        },
        {
          "internalType": "uint256",
          "name": "coinCost",
          "type": "uint256"
        },
        {
          "internalType": "uint256",
          "name": "quantity",
          "type": "uint256"
        },
        {
          "internalType": "address",
          "name": "rewardAddress",
          "type": "address"
        }
      ],
      "stateMutability": "view",
      "type": "function"
    },
    {
      "inputs": [],
      "name": "deposit",
      "outputs": [],
      "stateMutability": "payable",
      "type": "function"
    },
    {
      "inputs": [
        {
          "internalType": "address",
          "name": "student",
          "type": "address"
        }
      ],
      "name": "rewardStudent",
      "outputs": [],
      "stateMutability": "nonpayable",
      "type": "function"
    },
    {
      "inputs": [
        {
          "internalType": "string",
          "name": "_name",
          "type": "string"
        },
        {
          "internalType": "uint256",
          "name": "_coinCost",
          "type": "uint256"
        },
        {
          "internalType": "uint256",
          "name": "_quantity",
          "type": "uint256"
        }
      ],
      "name": "addReward",
      "outputs": [],
      "stateMutability": "nonpayable",
      "type": "function"
    },
    {
      "inputs": [
        {
          "internalType": "uint256",
          "name": "rewardIndex",
          "type": "uint256"
        },
        {
          "internalType": "string",
          "name": "newName",
          "type": "string"
        },
        {
          "internalType": "uint256",
          "name": "newCoinCost",
          "type": "uint256"
        },
        {
          "internalType": "uint256",
          "name": "newQuantity",
          "type": "uint256"
        }
      ],
      "name": "updateReward",
      "outputs": [],
      "stateMutability": "nonpayable",
      "type": "function"
    },
    {
      "inputs": [
        {
          "internalType": "uint256",
          "name": "rewardIndex",
          "type": "uint256"
        }
      ],
      "name": "deleteReward",
      "outputs": [],
      "stateMutability": "nonpayable",
      "type": "function"
    },
    {
      "inputs": [],
      "name": "getBalance",
      "outputs": [
        {
          "internalType": "uint256",
          "name": "",
          "type": "uint256"
        }
      ],
      "stateMutability": "view",
      "type": "function"
    },
    {
      "inputs": [],
      "name": "getCompleteRewardData",
      "outputs": [
        {
          "components": [
            {
              "internalType": "string",
              "name": "name",
              "type": "string"
            },
            {
              "internalType": "uint256",
              "name": "coinCost",
              "type": "uint256"
            },
            {
              "internalType": "uint256",
              "name": "quantity",
              "type": "uint256"
            },
            {
              "internalType": "address",
              "name": "rewardAddress",
              "type": "address"
            }
          ],
          "internalType": "struct MyContract.Reward[]",
          "name": "",
          "type": "tuple[]"
        },
        {
          "internalType": "uint256",
          "name": "",
          "type": "uint256"
        },
        {
          "internalType": "uint256[]",
          "name": "",
          "type": "uint256[]"
        }
      ],
      "stateMutability": "view",
      "type": "function"
    },
    {
      "inputs": [],
      "name": "getLastRewardIndex",
      "outputs": [
        {
          "internalType": "uint256",
          "name": "",
          "type": "uint256"
        }
      ],
      "stateMutability": "view",
      "type": "function"
    },
    {
      "inputs": [],
      "name": "emitLastRewardIndex",
      "outputs": [],
      "stateMutability": "nonpayable",
      "type": "function"
    },
    {
      "inputs": [
        {
          "internalType": "uint256",
          "name": "rewardIndex",
          "type": "uint256"
        }
      ],
      "name": "redeemReward",
      "outputs": [],
      "stateMutability": "nonpayable",
      "type": "function"
    },
    {
      "inputs": [
        {
          "internalType": "address",
          "name": "studentAddress",
          "type": "address"
        }
      ],
      "name": "getRedemptionHistory",
      "outputs": [
        {
          "components": [
            {
              "internalType": "string",
              "name": "rewardName",
              "type": "string"
            },
            {
              "internalType": "uint256",
              "name": "rewardCost",
              "type": "uint256"
            },
            {
              "internalType": "uint256",
              "name": "timestamp",
              "type": "uint256"
            }
          ],
          "internalType": "struct MyContract.Redemption[]",
          "name": "",
          "type": "tuple[]"
        }
      ],
      "stateMutability": "view",
      "type": "function"
    }
  ],
  "bytecode": "0x608060405234801561001057600080fd5b5033600160006101000a81548173ffffffffffffffffffffffffffffffffffffffff021916908373ffffffffffffffffffffffffffffffffffffffff160217905550612674806100616000396000f3fe6080604052600436106100e85760003560e01c806379c1ef861161008a578063c3e6629411610059578063c3e66294146102e4578063d0e30db01461030f578063e7cf1ab714610319578063f301af4214610342576100e8565b806379c1ef86146102145780638da5cb5b1461023d578063b714073314610268578063bb2f1270146102a7576100e8565b806327e235e3116100c657806327e235e3146101585780634fb37b471461019557806351a71b17146101be5780635cd62a95146101e7576100e8565b80630c9c85cc146100ed57806310cba3ce1461010457806312065fe01461012d575b600080fd5b3480156100f957600080fd5b50610102610382565b005b34801561011057600080fd5b5061012b600480360381019061012691906119ec565b6103e6565b005b34801561013957600080fd5b506101426105b3565b60405161014f91906120e3565b60405180910390f35b34801561016457600080fd5b5061017f600480360381019061017a91906119ec565b6105f9565b60405161018c91906120e3565b60405180910390f35b3480156101a157600080fd5b506101bc60048036038101906101b79190611ae1565b610611565b005b3480156101ca57600080fd5b506101e560048036038101906101e09190611ab8565b6107ee565b005b3480156101f357600080fd5b506101fc610c8d565b60405161020b93929190611f54565b60405180910390f35b34801561022057600080fd5b5061023b60048036038101906102369190611a51565b610f05565b005b34801561024957600080fd5b506102526110fd565b60405161025f9190611f17565b60405180910390f35b34801561027457600080fd5b5061028f600480360381019061028a9190611a15565b611123565b60405161029e93929190611f99565b60405180910390f35b3480156102b357600080fd5b506102ce60048036038101906102c991906119ec565b6111f2565b6040516102db9190611f32565b60405180910390f35b3480156102f057600080fd5b506102f9611336565b60405161030691906120e3565b60405180910390f35b610317611363565b005b34801561032557600080fd5b50610340600480360381019061033b9190611ab8565b611438565b005b34801561034e57600080fd5b5061036960048036038101906103649190611ab8565b611702565b6040516103799493929190611fd7565b60405180910390f35b600080600280549050116103975760006103aa565b60016002805490506103a99190612282565b5b90507ff46e70432e060bb85a546be7497a7ec2d9ed7d96e0bb940b1c0798f9dda81c1d816040516103db91906120e3565b60405180910390a150565b600160009054906101000a900473ffffffffffffffffffffffffffffffffffffffff1673ffffffffffffffffffffffffffffffffffffffff163373ffffffffffffffffffffffffffffffffffffffff1614610476576040517f08c379a000000000000000000000000000000000000000000000000000000000815260040161046d90612023565b60405180910390fd5b600066b1a2bc2ec500009050804710156104c5576040517f08c379a00000000000000000000000000000000000000000000000000000000081526004016104bc906120a3565b60405180910390fd5b8173ffffffffffffffffffffffffffffffffffffffff166108fc829081150290604051600060405180830381858888f1935050505015801561050b573d6000803e3d6000fd5b50806000808473ffffffffffffffffffffffffffffffffffffffff1673ffffffffffffffffffffffffffffffffffffffff168152602001908152602001600020600082825461055a919061222c565b925050819055508173ffffffffffffffffffffffffffffffffffffffff167fb3b7a071186534c03b40695710096f289fd4ed6c1a374aff0bb648955e4fe563826040516105a791906120e3565b60405180910390a25050565b60008060003373ffffffffffffffffffffffffffffffffffffffff1673ffffffffffffffffffffffffffffffffffffffff16815260200190815260200160002054905090565b60006020528060005260406000206000915090505481565b600160009054906101000a900473ffffffffffffffffffffffffffffffffffffffff1673ffffffffffffffffffffffffffffffffffffffff163373ffffffffffffffffffffffffffffffffffffffff16146106a1576040517f08c379a000000000000000000000000000000000000000000000000000000000815260040161069890612023565b60405180910390fd5b60028054905084106106e8576040517f08c379a00000000000000000000000000000000000000000000000000000000081526004016106df906120c3565b60405180910390fd5b8260028581548110610723577f4e487b7100000000000000000000000000000000000000000000000000000000600052603260045260246000fd5b906000526020600020906004020160000190805190602001906107479291906117ea565b508160028581548110610783577f4e487b7100000000000000000000000000000000000000000000000000000000600052603260045260246000fd5b90600052602060002090600402016001018190555080600285815481106107d3577f4e487b7100000000000000000000000000000000000000000000000000000000600052603260045260246000fd5b90600052602060002090600402016002018190555050505050565b6002805490508110610835576040517f08c379a000000000000000000000000000000000000000000000000000000000815260040161082c906120c3565b60405180910390fd5b600060028281548110610871577f4e487b7100000000000000000000000000000000000000000000000000000000600052603260045260246000fd5b906000526020600020906004020160405180608001604052908160008201805461089a9061235e565b80601f01602080910402602001604051908101604052809291908181526020018280546108c69061235e565b80156109135780601f106108e857610100808354040283529160200191610913565b820191906000526020600020905b8154815290600101906020018083116108f657829003601f168201915b5050505050815260200160018201548152602001600282015481526020016003820160009054906101000a900473ffffffffffffffffffffffffffffffffffffffff1673ffffffffffffffffffffffffffffffffffffffff1673ffffffffffffffffffffffffffffffffffffffff1681525050905080602001516000803373ffffffffffffffffffffffffffffffffffffffff1673ffffffffffffffffffffffffffffffffffffffff168152602001908152602001600020541015610a0d576040517f08c379a0000000000000000000000000000000000000000000000000000000008152600401610a0490612063565b60405180910390fd5b6000816040015111610a54576040517f08c379a0000000000000000000000000000000000000000000000000000000008152600401610a4b90612083565b60405180910390fd5b80602001516000803373ffffffffffffffffffffffffffffffffffffffff1673ffffffffffffffffffffffffffffffffffffffff1681526020019081526020016000206000828254610aa69190612282565b925050819055508060200151600080836060015173ffffffffffffffffffffffffffffffffffffffff1673ffffffffffffffffffffffffffffffffffffffff1681526020019081526020016000206000828254610b03919061222c565b9250508190555060028281548110610b44577f4e487b7100000000000000000000000000000000000000000000000000000000600052603260045260246000fd5b90600052602060002090600402016002016000815480929190610b6690612334565b91905055503373ffffffffffffffffffffffffffffffffffffffff167f5b5ec4f516dc748cdc19eaed1f8e52be9e3dbf46768e90c539fcada6b82a60468260000151836020015142604051610bbd93929190611f99565b60405180910390a2600060405180606001604052808360000151815260200183602001518152602001428152509050600360003373ffffffffffffffffffffffffffffffffffffffff1673ffffffffffffffffffffffffffffffffffffffff1681526020019081526020016000208190806001815401808255809150506001900390600052602060002090600302016000909190919091506000820151816000019080519060200190610c719291906117ea565b5060208201518160010155604082015181600201555050505050565b606060006060600060028054905067ffffffffffffffff811115610cda577f4e487b7100000000000000000000000000000000000000000000000000000000600052604160045260246000fd5b604051908082528060200260200182016040528015610d085781602001602082028036833780820191505090505b50905060005b600280549050811015610d745780828281518110610d55577f4e487b7100000000000000000000000000000000000000000000000000000000600052603260045260246000fd5b6020026020010181815250508080610d6c906123c1565b915050610d0e565b5060008060028054905011610d8a576000610d9d565b6001600280549050610d9c9190612282565b5b90506002818382805480602002602001604051908101604052809291908181526020016000905b82821015610ef25783829060005260206000209060040201604051806080016040529081600082018054610df79061235e565b80601f0160208091040260200160405190810160405280929190818152602001828054610e239061235e565b8015610e705780601f10610e4557610100808354040283529160200191610e70565b820191906000526020600020905b815481529060010190602001808311610e5357829003601f168201915b5050505050815260200160018201548152602001600282015481526020016003820160009054906101000a900473ffffffffffffffffffffffffffffffffffffffff1673ffffffffffffffffffffffffffffffffffffffff1673ffffffffffffffffffffffffffffffffffffffff168152505081526020019060010190610dc4565b5050505092509450945094505050909192565b600160009054906101000a900473ffffffffffffffffffffffffffffffffffffffff1673ffffffffffffffffffffffffffffffffffffffff163373ffffffffffffffffffffffffffffffffffffffff1614610f95576040517f08c379a0000000000000000000000000000000000000000000000000000000008152600401610f8c90612023565b60405180910390fd5b60006040518060800160405280858152602001848152602001838152602001600160009054906101000a900473ffffffffffffffffffffffffffffffffffffffff1673ffffffffffffffffffffffffffffffffffffffff1681525090506002819080600181540180825580915050600190039060005260206000209060040201600090919091909150600082015181600001908051906020019061103a9291906117ea565b50602082015181600101556040820151816002015560608201518160030160006101000a81548173ffffffffffffffffffffffffffffffffffffffff021916908373ffffffffffffffffffffffffffffffffffffffff16021790555050507f55be855b6cf999ab3e13937b28eff4c939dea456c3f5374653eda445961a222d848484600160009054906101000a900473ffffffffffffffffffffffffffffffffffffffff166040516110ef9493929190611fd7565b60405180910390a150505050565b600160009054906101000a900473ffffffffffffffffffffffffffffffffffffffff1681565b6003602052816000526040600020818154811061113f57600080fd5b9060005260206000209060030201600091509150508060000180546111639061235e565b80601f016020809104026020016040519081016040528092919081815260200182805461118f9061235e565b80156111dc5780601f106111b1576101008083540402835291602001916111dc565b820191906000526020600020905b8154815290600101906020018083116111bf57829003601f168201915b5050505050908060010154908060020154905083565b6060600360008373ffffffffffffffffffffffffffffffffffffffff1673ffffffffffffffffffffffffffffffffffffffff168152602001908152602001600020805480602002602001604051908101604052809291908181526020016000905b8282101561132b57838290600052602060002090600302016040518060600160405290816000820180546112869061235e565b80601f01602080910402602001604051908101604052809291908181526020018280546112b29061235e565b80156112ff5780601f106112d4576101008083540402835291602001916112ff565b820191906000526020600020905b8154815290600101906020018083116112e257829003601f168201915b505050505081526020016001820154815260200160028201548152505081526020019060010190611253565b505050509050919050565b6000806002805490501161134b57600061135e565b600160028054905061135d9190612282565b5b905090565b600160009054906101000a900473ffffffffffffffffffffffffffffffffffffffff1673ffffffffffffffffffffffffffffffffffffffff163373ffffffffffffffffffffffffffffffffffffffff16146113f3576040517f08c379a00000000000000000000000000000000000000000000000000000000081526004016113ea90612023565b60405180910390fd5b60003411611436576040517f08c379a000000000000000000000000000000000000000000000000000000000815260040161142d90612043565b60405180910390fd5b565b600160009054906101000a900473ffffffffffffffffffffffffffffffffffffffff1673ffffffffffffffffffffffffffffffffffffffff163373ffffffffffffffffffffffffffffffffffffffff16146114c8576040517f08c379a00000000000000000000000000000000000000000000000000000000081526004016114bf90612023565b60405180910390fd5b600280549050811061150f576040517f08c379a0000000000000000000000000000000000000000000000000000000008152600401611506906120c3565b60405180910390fd5b60016002805490506115219190612282565b8114611667576002600160028054905061153b9190612282565b81548110611572577f4e487b7100000000000000000000000000000000000000000000000000000000600052603260045260246000fd5b9060005260206000209060040201600282815481106115ba577f4e487b7100000000000000000000000000000000000000000000000000000000600052603260045260246000fd5b906000526020600020906004020160008201816000019080546115dc9061235e565b6115e7929190611870565b5060018201548160010155600282015481600201556003820160009054906101000a900473ffffffffffffffffffffffffffffffffffffffff168160030160006101000a81548173ffffffffffffffffffffffffffffffffffffffff021916908373ffffffffffffffffffffffffffffffffffffffff1602179055509050505b600280548061169f577f4e487b7100000000000000000000000000000000000000000000000000000000600052603160045260246000fd5b6001900381819060005260206000209060040201600080820160006116c491906118fd565b600182016000905560028201600090556003820160006101000a81549073ffffffffffffffffffffffffffffffffffffffff02191690555050905550565b6002818154811061171257600080fd5b90600052602060002090600402016000915090508060000180546117359061235e565b80601f01602080910402602001604051908101604052809291908181526020018280546117619061235e565b80156117ae5780601f10611783576101008083540402835291602001916117ae565b820191906000526020600020905b81548152906001019060200180831161179157829003601f168201915b5050505050908060010154908060020154908060030160009054906101000a900473ffffffffffffffffffffffffffffffffffffffff16905084565b8280546117f69061235e565b90600052602060002090601f016020900481019282611818576000855561185f565b82601f1061183157805160ff191683800117855561185f565b8280016001018555821561185f579182015b8281111561185e578251825591602001919060010190611843565b5b50905061186c919061193d565b5090565b82805461187c9061235e565b90600052602060002090601f01602090048101928261189e57600085556118ec565b82601f106118af57805485556118ec565b828001600101855582156118ec57600052602060002091601f016020900482015b828111156118eb5782548255916001019190600101906118d0565b5b5090506118f9919061193d565b5090565b5080546119099061235e565b6000825580601f1061191b575061193a565b601f016020900490600052602060002090810190611939919061193d565b5b50565b5b8082111561195657600081600090555060010161193e565b5090565b600061196d61196884612123565b6120fe565b90508281526020810184848401111561198557600080fd5b6119908482856122f2565b509392505050565b6000813590506119a781612610565b92915050565b600082601f8301126119be57600080fd5b81356119ce84826020860161195a565b91505092915050565b6000813590506119e681612627565b92915050565b6000602082840312156119fe57600080fd5b6000611a0c84828501611998565b91505092915050565b60008060408385031215611a2857600080fd5b6000611a3685828601611998565b9250506020611a47858286016119d7565b9150509250929050565b600080600060608486031215611a6657600080fd5b600084013567ffffffffffffffff811115611a8057600080fd5b611a8c868287016119ad565b9350506020611a9d868287016119d7565b9250506040611aae868287016119d7565b9150509250925092565b600060208284031215611aca57600080fd5b6000611ad8848285016119d7565b91505092915050565b60008060008060808587031215611af757600080fd5b6000611b05878288016119d7565b945050602085013567ffffffffffffffff811115611b2257600080fd5b611b2e878288016119ad565b9350506040611b3f878288016119d7565b9250506060611b50878288016119d7565b91505092959194509250565b6000611b688383611e46565b905092915050565b6000611b7c8383611e96565b905092915050565b6000611b908383611ef9565b60208301905092915050565b611ba5816122b6565b82525050565b611bb4816122b6565b82525050565b6000611bc582612184565b611bcf81856121d7565b935083602082028501611be185612154565b8060005b85811015611c1d5784840389528151611bfe8582611b5c565b9450611c09836121b0565b925060208a01995050600181019050611be5565b50829750879550505050505092915050565b6000611c3a8261218f565b611c4481856121e8565b935083602082028501611c5685612164565b8060005b85811015611c925784840389528151611c738582611b70565b9450611c7e836121bd565b925060208a01995050600181019050611c5a565b50829750879550505050505092915050565b6000611caf8261219a565b611cb981856121f9565b9350611cc483612174565b8060005b83811015611cf5578151611cdc8882611b84565b9750611ce7836121ca565b925050600181019050611cc8565b5085935050505092915050565b6000611d0d826121a5565b611d17818561220a565b9350611d27818560208601612301565b611d3081612497565b840191505092915050565b6000611d46826121a5565b611d50818561221b565b9350611d60818560208601612301565b611d6981612497565b840191505092915050565b6000611d8160258361221b565b9150611d8c826124a8565b604082019050919050565b6000611da460148361221b565b9150611daf826124f7565b602082019050919050565b6000611dc760258361221b565b9150611dd282612520565b604082019050919050565b6000611dea60138361221b565b9150611df58261256f565b602082019050919050565b6000611e0d602d8361221b565b9150611e1882612598565b604082019050919050565b6000611e3060148361221b565b9150611e3b826125e7565b602082019050919050565b60006060830160008301518482036000860152611e638282611d02565b9150506020830151611e786020860182611ef9565b506040830151611e8b6040860182611ef9565b508091505092915050565b60006080830160008301518482036000860152611eb38282611d02565b9150506020830151611ec86020860182611ef9565b506040830151611edb6040860182611ef9565b506060830151611eee6060860182611b9c565b508091505092915050565b611f02816122e8565b82525050565b611f11816122e8565b82525050565b6000602082019050611f2c6000830184611bab565b92915050565b60006020820190508181036000830152611f4c8184611bba565b905092915050565b60006060820190508181036000830152611f6e8186611c2f565b9050611f7d6020830185611f08565b8181036040830152611f8f8184611ca4565b9050949350505050565b60006060820190508181036000830152611fb38186611d3b565b9050611fc26020830185611f08565b611fcf6040830184611f08565b949350505050565b60006080820190508181036000830152611ff18187611d3b565b90506120006020830186611f08565b61200d6040830185611f08565b61201a6060830184611bab565b95945050505050565b6000602082019050818103600083015261203c81611d74565b9050919050565b6000602082019050818103600083015261205c81611d97565b9050919050565b6000602082019050818103600083015261207c81611dba565b9050919050565b6000602082019050818103600083015261209c81611ddd565b9050919050565b600060208201905081810360008301526120bc81611e00565b9050919050565b600060208201905081810360008301526120dc81611e23565b9050919050565b60006020820190506120f86000830184611f08565b92915050565b6000612108612119565b90506121148282612390565b919050565b6000604051905090565b600067ffffffffffffffff82111561213e5761213d612468565b5b61214782612497565b9050602081019050919050565b6000819050602082019050919050565b6000819050602082019050919050565b6000819050602082019050919050565b600081519050919050565b600081519050919050565b600081519050919050565b600081519050919050565b6000602082019050919050565b6000602082019050919050565b6000602082019050919050565b600082825260208201905092915050565b600082825260208201905092915050565b600082825260208201905092915050565b600082825260208201905092915050565b600082825260208201905092915050565b6000612237826122e8565b9150612242836122e8565b9250827fffffffffffffffffffffffffffffffffffffffffffffffffffffffffffffffff038211156122775761227661240a565b5b828201905092915050565b600061228d826122e8565b9150612298836122e8565b9250828210156122ab576122aa61240a565b5b828203905092915050565b60006122c1826122c8565b9050919050565b600073ffffffffffffffffffffffffffffffffffffffff82169050919050565b6000819050919050565b82818337600083830152505050565b60005b8381101561231f578082015181840152602081019050612304565b8381111561232e576000848401525b50505050565b600061233f826122e8565b915060008214156123535761235261240a565b5b600182039050919050565b6000600282049050600182168061237657607f821691505b6020821081141561238a57612389612439565b5b50919050565b61239982612497565b810181811067ffffffffffffffff821117156123b8576123b7612468565b5b80604052505050565b60006123cc826122e8565b91507fffffffffffffffffffffffffffffffffffffffffffffffffffffffffffffffff8214156123ff576123fe61240a565b5b600182019050919050565b7f4e487b7100000000000000000000000000000000000000000000000000000000600052601160045260246000fd5b7f4e487b7100000000000000000000000000000000000000000000000000000000600052602260045260246000fd5b7f4e487b7100000000000000000000000000000000000000000000000000000000600052604160045260246000fd5b6000601f19601f8301169050919050565b7f4f6e6c7920746865206f776e65722063616e2063616c6c20746869732066756e60008201527f6374696f6e000000000000000000000000000000000000000000000000000000602082015250565b7f4d7573742073656e6420736f6d65206574686572000000000000000000000000600082015250565b7f4e6f7420656e6f75676820636f696e7320746f2072656465656d20746865207260008201527f6577617264000000000000000000000000000000000000000000000000000000602082015250565b7f526577617264206f7574206f662073746f636b00000000000000000000000000600082015250565b7f436f6e747261637420646f6573206e6f74206861766520656e6f75676820657460008201527f68657220746f2072657761726400000000000000000000000000000000000000602082015250565b7f496e76616c69642072657761726420696e646578000000000000000000000000600082015250565b612619816122b6565b811461262457600080fd5b50565b612630816122e8565b811461263b57600080fd5b5056fea26469706673582212203e6114e0433e505bfb7c80d4db9b8a74f8251fc3abe7169352b5f713f57ec8e164736f6c63430008040033",
  "immutableReferences": {},
  "source": "//  license  Smart Contract\r\n// SPDX-License-Identifier: MIT\r\npragma solidity ^0.8.4; //  Solidity\r\n\r\n//  Smart Contract  MyContract\r\ncontract MyContract {\r\n\r\n    // \r\n    mapping(address => uint256) public balances; // \r\n    address public owner; //  Smart Contract\r\n    Reward[] public rewards; // \r\n    mapping(address => Redemption[]) public redemptionHistory; // \r\n\r\n    // \r\n    event SpentCoin(address indexed student, uint256 amount); // \r\n    event Rewarded(address indexed student, uint256 amount); // \r\n    event Redeemed(address indexed student, string rewardName, uint256 rewardCost, uint256 timestamp); // \r\n    event LastRewardIndexChanged(uint256 newIndex);\r\n    event RewardAdded(string name, uint256 coinCost, uint256 quantity, address rewardAddress);\r\n\r\n    // : \r\n    modifier onlyOwner() {\r\n        require(msg.sender == owner, \"Only the owner can call this function\");\r\n        _;\r\n    }\r\n\r\n    // \r\n    struct Reward {\r\n        string name; // \r\n        uint256 coinCost; // \r\n        uint256 quantity; // \r\n        address rewardAddress; // \r\n    }\r\n\r\n    struct Redemption {\r\n        string rewardName; // \r\n        uint256 rewardCost; // \r\n        uint256 timestamp; // \r\n    }\r\n\r\n    // \r\n    constructor() {\r\n        owner = msg.sender; // \r\n    }\r\n\r\n    // \r\n    function deposit() public payable onlyOwner { // \r\n        require(msg.value > 0, \"Must send some ether\"); //  ether\r\n    }\r\n\r\n    function rewardStudent(address student) public onlyOwner { // \r\n        uint256 rewardAmountEther = 0.05 ether; //  ether\r\n        require(address(this).balance >= rewardAmountEther, \"Contract does not have enough ether to reward\"); // \r\n        payable(student).transfer(rewardAmountEther); // \r\n        balances[student] += rewardAmountEther; // \r\n        emit Rewarded(student, rewardAmountEther); // \r\n    }\r\n\r\n function addReward(string memory _name, uint256 _coinCost, uint256 _quantity) public onlyOwner {\r\n    Reward memory newReward = Reward({\r\n        name: _name,\r\n        coinCost: _coinCost,\r\n        quantity: _quantity,\r\n        rewardAddress: owner  //  owner  msg.sender\r\n    });\r\n    rewards.push(newReward); // \r\n\r\n    // Emit the event\r\n    emit RewardAdded(_name, _coinCost, _quantity, owner);  //  owner  msg.sender\r\n}\r\n\r\n\r\n\r\n    function updateReward(uint256 rewardIndex, string memory newName, uint256 newCoinCost, uint256 newQuantity) public onlyOwner { // \r\n        require(rewardIndex < rewards.length, \"Invalid reward index\"); //  index \r\n        rewards[rewardIndex].name = newName; // \r\n        rewards[rewardIndex].coinCost = newCoinCost; // \r\n        rewards[rewardIndex].quantity = newQuantity; // \r\n    }\r\n\r\n    function deleteReward(uint256 rewardIndex) public onlyOwner { // \r\n        require(rewardIndex < rewards.length, \"Invalid reward index\"); //  index \r\n        if (rewardIndex != rewards.length-1) { // \r\n            rewards[rewardIndex] = rewards[rewards.length-1]; // \r\n        }\r\n        rewards.pop(); // \r\n    }\r\n\r\n    // \r\n    function getBalance() public view returns (uint256) { // \r\n        return balances[msg.sender]; // \r\n    }\r\n \r\n   function getCompleteRewardData() public view returns (Reward[] memory, uint256, uint256[] memory) {\r\n    uint256[] memory rewardIndices = new uint256[](rewards.length);\r\n    for (uint256 i = 0; i < rewards.length; i++) {\r\n        rewardIndices[i] = i;\r\n    }\r\n    uint256 lastRewardIndex = rewards.length > 0 ? rewards.length - 1 : 0;\r\n    return (rewards, lastRewardIndex, rewardIndices);\r\n}\r\n\r\nfunction getLastRewardIndex() public view returns (uint256) {\r\n    return rewards.length > 0 ? rewards.length - 1 : 0;\r\n}\r\n\r\nfunction emitLastRewardIndex() public {\r\n    uint256 index = rewards.length > 0 ? rewards.length - 1 : 0;\r\n    emit LastRewardIndexChanged(index);\r\n}\r\n\r\n\r\n\r\n\r\n\r\n\r\n\r\n\r\n    function redeemReward(uint256 rewardIndex) public { // \r\n        require(rewardIndex < rewards.length, \"Invalid reward index\"); //  index \r\n        Reward memory chosenReward = rewards[rewardIndex]; // \r\n        require(balances[msg.sender] >= chosenReward.coinCost, \"Not enough coins to redeem the reward\"); // \r\n        require(chosenReward.quantity > 0, \"Reward out of stock\"); // \r\n        balances[msg.sender] -= chosenReward.coinCost; // \r\n        balances[chosenReward.rewardAddress] += chosenReward.coinCost; // \r\n        rewards[rewardIndex].quantity--; // \r\n        emit Redeemed(msg.sender, chosenReward.name, chosenReward.coinCost, block.timestamp); // \r\n\r\n        Redemption memory newRedemption = Redemption({ // \r\n            rewardName: chosenReward.name,\r\n            rewardCost: chosenReward.coinCost,\r\n            timestamp: block.timestamp\r\n        });\r\n        redemptionHistory[msg.sender].push(newRedemption); // \r\n    }\r\n\r\n    function getRedemptionHistory(address studentAddress) public view returns (Redemption[] memory) { // \r\n        return redemptionHistory[studentAddress]; // \r\n    }\r\n}\r\n",
  "sourcePath": "C:\\Users\\sirichai\\Desktop\\project\\chackin\\smartcontrace\\contracts\\MyContract.sol",
  "compiler": {
    "name": "solc",
    "version": "0.8.4+commit.c7e474f2.Emscripten.clang"
  },
  "schemaVersion": "3.4.11",
  "updatedAt": "2023-10-10T19:04:21.032Z",
  "devdoc": {
    "kind": "dev",
    "methods": {},
    "version": 1
  },
  "userdoc": {
    "kind": "user",
    "methods": {},
    "version": 1
  }
}